:100000000C9462000C948A000C948A000C948A0070
:100010000C948A000C948A000C948A000C948A0038
:100020000C948A000C948A000C948A000C94270586
:100030000C948A000C948A000C948A000C948A0018
:100040000C94DD040C948A000C94AB040C9485048D
:100050000C948A000C948A000C948A000C948A00F8
:100060000C948A000C948A000000000024002700F1
:100070002A0000000000250028002B0000000008D6
:10008000000201000003040700000000000000005F
:1000900000000000230026002900040404040404D6
:1000A0000404020202020202030303030303010227
:1000B00004081020408001020408102001020408F6
:1000C00010202D0611241FBECFEFD8E0DEBFCDBF1C
:1000D00011E0A0E0B1E0EEEDF2E102C005900D927A
:1000E000A231B107D9F721E0A2E1B1E001C01D9230
:1000F000A03FB207E1F710E0C2E6D0E004C02197CC
:10010000FE010E946209C136D107C9F70E94A60606
:100110000C946D090C940000CF92DF92EF92FF9245
:100120000F931F93CF93DF936C017A018B01C0E093
:10013000D0E0CE15DF0589F0D8016D918D01D60193
:10014000ED91FC910190F081E02DC6010995892B7C
:1001500011F47E0102C02196ECCFC701DF91CF914F
:100160001F910F91FF90EF90DF90CF900895089529
:1001700080E090E00895FC01538D448D252F30E000
:10018000842F90E0821B930B541710F0CF960895A4
:1001900001970895FC01918D828D981761F0828DF1
:1001A000DF01A80FB11D5D968C91928D9F5F9F73AB
:1001B000928F90E008958FEF9FEF0895FC01918D4D
:1001C000828D981731F0828DE80FF11D858D90E0BA
:1001D00008958FEF9FEF0895FC01918D228D892F57
:1001E00090E0805C9F4F821B91098F73992708953F
:1001F00088E291E00E94EC0021E0892B09F420E0E4
:10020000822F0895FC01848DDF01A80FB11DA35A30
:10021000BF4F2C91848D90E001968F739927848F26
:10022000A689B7892C93A089B1898C9180648C931D
:10023000938D848D981306C00288F389E02D808108
:100240008F7D80830895EF92FF920F931F93CF933A
:10025000DF93EC0181E0888F9B8D8C8D981305C016
:10026000E889F989808185FD24C0F62E0B8D10E088
:100270000F5F1F4F0F731127E02E8C8DE8120CC0FB
:100280000FB607FCFACFE889F989808185FFF5CFA1
:10029000CE010E940201F1CF8B8DFE01E80FF11D0E
:1002A000E35AFF4FF0820B8FEA89FB8980818062DD
:1002B00007C0EE89FF896083E889F98980818064BD
:1002C000808381E090E0DF91CF911F910F91FF90AB
:1002D000EF900895CF93DF93EC01888D8823C9F0C8
:1002E000EA89FB89808185FD05C0A889B9898C913F
:1002F00086FD0FC00FB607FCF5CF808185FFF2CFDA
:10030000A889B9898C9185FFEDCFCE010E940201A9
:10031000E7CFDF91CF91089580E090E0892B29F01D
:100320000E94F80081110C9400000895833081F040
:1003300028F4813099F08230A1F008958730A9F037
:100340008830B9F08430D1F4809180008F7D03C073
:10035000809180008F7780938000089584B58F7797
:1003600002C084B58F7D84BD08958091B0008F77E1
:1003700003C08091B0008F7D8093B0000895CF932B
:10038000DF93E7E8F0E08491E9EBF0E0D491E5EA6F
:10039000F0E0C491CC2391F081110E949601EC2FE2
:1003A000F0E0EE0FFF1FE057FF4FA591B491EC91E5
:1003B000ED2381E090E021F480E002C080E090E055
:1003C000DF91CF9108951F93CF93DF93282F30E0D3
:1003D000F901E458FF4F8491F901E255FF4FD491A0
:1003E000F901E656FF4FC491CC23C9F0162F8111B5
:1003F0000E949601EC2FF0E0EE0FFF1FEE58FF4F2A
:10040000A591B4918FB7F894111105C09C91ED2F6F
:10041000E095E92302C0EC91ED2BEC938FBFDF91C7
:10042000CF911F910895CF93DF9390E0FC01E255A7
:10043000FF4F2491FC01E656FF4F8491882361F120
:1004400090E0880F991FFC01E859FF4FC591D491A6
:10045000FC01EE58FF4FA591B491611109C09FB7FF
:10046000F8948881209582238883EC912E230BC0F9
:10047000623061F49FB7F8943881822F809583238E
:100480008883EC912E2B2C939FBF06C08FB7F894D6
:10049000E8812E2B28838FBFDF91CF9108953FB73E
:1004A000F8948091180190911901A0911A01B091CE
:1004B0001B0126B5A89B05C02F3F19F00196A11D71
:1004C000B11D3FBFBA2FA92F982F8827820F911DEA
:1004D000A11DB11DBC01CD0142E0660F771F881F31
:1004E000991F4A95D1F708958F929F92AF92BF922C
:1004F000CF92DF92EF92FF926B017C010E944F023C
:100500004B015C01C114D104E104F104F1F00E943B
:100510004F02DC01CB0188199909AA09BB09883E61
:100520009340A105B10570F321E0C21AD108E1089A
:10053000F10888EE880E83E0981EA11CB11CC1143E
:10054000D104E104F10419F7DDCFFF90EF90DF90C3
:10055000CF90BF90AF909F908F900895CF92DF92F1
:10056000EF92FF92CF93DF93EC01603282E0780745
:100570000CF03DC077FD06C0653B71052CF064EBC7
:1005800070E002C060E070E0898128E830E0690135
:10059000C81AD10887FDD394CC0CDD1CCC0CDD1C13
:1005A0000D2C000CEE08FF088A8128E532E0281B9C
:1005B000310987FD3395220F331F220F331FC901E5
:1005C000330FAA0BBB0B9C01AD012C193D094E0941
:1005D0005F09DB010E941D0924EB30E040E050E0A0
:1005E0000E94F308C20ED31EE41EF51EB6018881D8
:1005F0008C3080F5998148E850E0491B510997FDFE
:100600005395440F551F440F551F6417750784F009
:100610009A8128E532E0291B310997FD3395220F95
:10062000331F220F331FAB01261737070CF4A90124
:1006300042505109440F551F2FB7F89490E0FC0128
:10064000EE0FFF1F8E0F9F1FFC01EB53FE4F5283D7
:1006500041832FBFDF91CF91FF90EF90DF90CF903C
:1006600008951F93CF93DF93EC01162F88818C3070
:1006700008F04EC061E0812F0E9413028881E82FAC
:10068000F0E09F01220F331FE20FF31FEB53FE4FE9
:100690001F739081907C192B108319821A826CE051
:1006A0000E9456099CE0899FB001112440E050E06F
:1006B0009A01260F371FF901EE0FFF1F2E0F3F1F64
:1006C000F901EB53FE4F908196FD16C04F5F5F4FCF
:1006D0004C30510569F781110FC01092800082E003
:1006E000809381001092850010928400B19A8091CD
:1006F0006F00826080936F00E881F0E0CF01880F87
:10070000991FE80FF91FEB53FE4F808180648083AF
:100710008881DF91CF911F9108950F931F93E0EB94
:10072000F0E06491ECE9F0E0E491F0E0EE0FFF1FFF
:10073000E057FF4F8591949100E412E42FE030E000
:1007400040E00E94E805611571058105910549F0B9
:10075000DC01CB010196A11DB11DBC01CD019F7033
:1007600003C060E070E0CB011F910F9108958F925C
:100770009F92AF92BF92CF92DF92EF92FF920F9330
:100780001F93CF93DF9300D000D01F92CDB7DEB779
:100790007E0186E0E80EF11CFE0131966F0160E0FB
:1007A00084E00E94E30160E083E00E94E3010E9494
:1007B0008D034B016AE070E080E090E00E947402DB
:1007C00061E084E00E94E30161E083E00E94E301D4
:1007D0000E948D035B016AE070E080E090E00E947F
:1007E000740260E084E00E94E30161E083E00E9423
:1007F000E3010E948D038B016AE070E080E090E0ED
:100800000E94740291E02091240130912501281565
:1008100039050CF490E081E0209126013091270108
:10082000821693060CF480E0892331E04091220186
:1008300050912301A416B5060CF430E0982F9323B1
:1008400021E040912001509121014A155B050CF4F3
:1008500020E0892F822391E020911E0130911F0119
:10086000021713070CF490E0982381E020911C01FB
:1008700030911D01201731070CF480E0892391E0AD
:100880008927F60181936F016AE070E080E090E0D3
:100890000E947402CE14DF0409F081CF99818A810D
:1008A000992381F0882309F477CF8B81882309F479
:1008B00073CF8C81882309F46FCF8D81882309F44D
:1008C0006BCF0BC0811168CF8B81811165CF8C817B
:1008D000811162CF8D8181115FCF0F900F900F90AA
:1008E0000F900F90DF91CF911F910F91FF90EF909C
:1008F000DF90CF90BF90AF909F908F9008950E940F
:1009000068090C94E5080C94DD081F920F920FB64D
:100910000F9211242F933F934F935F936F937F9385
:100920008F939F93AF93BF93EF93FF9388E291E0F0
:100930000E940201FF91EF91BF91AF919F918F9122
:100940007F916F915F914F913F912F910F900FBECB
:100950000F901F9018951F920F920FB60F921124AF
:100960002F938F939F93EF93FF93E0913801F09132
:1009700039018081E0913E01F0913F0182FD12C07A
:100980009081809141018F5F8F7320914201821786
:1009900051F0E0914101F0E0E85DFE4F958F8093CA
:1009A000410101C08081FF91EF919F918F912F9123
:1009B0000F900FBE0F901F9018951F920F920FB6B9
:1009C0000F9211242F933F938F939F93AF93BF93D5
:1009D0008091140190911501A0911601B091170119
:1009E0003091130123E0230F2D3720F40196A11D30
:1009F000B11D05C026E8230F0296A11DB11D20934D
:100A000013018093140190931501A0931601B093E4
:100A100017018091180190911901A0911A01B091CC
:100A20001B010196A11DB11D80931801909319011E
:100A3000A0931A01B0931B01BF91AF919F918F9129
:100A40003F912F910F900FBE0F901F9018951F92FE
:100A50000F920FB60F9211242F933F934F935F93F2
:100A60006F937F938F939F93AF93BF93EF93FF9376
:100A70008091120187FF05C01092850010928400BA
:100A80001BC020911201022E000C330B8091E90152
:100A900090E02817390784F480911201082E000C89
:100AA000990BFC01EE0FFF1F8E0F9F1FFC01EB53F4
:100AB000FE4F808186FD15C0809112018F5F80936B
:100AC000120120911201022E000C330B8091E901DA
:100AD00090E028173907C4F4809112018C3064F13A
:100AE00013C080911201082E000C990BFC01EE0F2F
:100AF000FF1F8E0F9F1FFC01EB53FE4F808160E0B4
:100B00008F730E94E301D8CF80918400909185007B
:100B1000049680349C4918F480E49CE905C08091D7
:100B200084009091850004969093890080938800BA
:100B30008FEF809312013BC020918400309185009B
:100B400080911201082E000C990BFC01EE0FFF1F83
:100B50008E0F9F1FFC01EB53FE4F81819281820F0C
:100B6000931F909389008093880080911201082E32
:100B7000000C990BFC01EE0FFF1F8E0F9F1FFC0155
:100B8000EB53FE4F808186FF12C080911201082E28
:100B9000000C990BFC01EE0FFF1F8E0F9F1FFC0135
:100BA000EB53FE4F808161E08F730E94E301FF9160
:100BB000EF91BF91AF919F918F917F916F915F91D5
:100BC0004F913F912F910F900FBE0F901F9018954E
:100BD000CF92DF92EF92FF920F931F93E82FF92F9E
:100BE00005C0015011092109310961F19081962355
:100BF0009417B9F305C0015011092109310911F108
:100C0000908196239413F7CFC12CD12CE12CF12C99
:100C10000AC08FEFC81AD80AE80AF80A0C151D0591
:100C20002E053F0579F080818623841791F36C2D82
:100C30007D2D8E2D9F2D1F910F91FF90EF90DF90B6
:100C4000CF90089560E070E080E090E01F910F91F8
:100C5000FF90EF90DF90CF90089510922B011092AB
:100C60002A0188EE93E0A0E0B0E080932C019093FD
:100C70002D01A0932E01B0932F0184E091E0909379
:100C800029018093280185EC90E0909335018093B1
:100C9000340184EC90E0909337018093360180EC2E
:100CA00090E0909339018093380181EC90E090932B
:100CB0003B0180933A0182EC90E090933D01809358
:100CC0003C0186EC90E090933F0180933E011092AE
:100CD000410110924201109243011092440180910F
:100CE000E9018C30A0F491E0980F9093E901809392
:100CF000ED0190E0FC01EE0FFF1F8E0F9F1FFC0126
:100D0000EB53FE4F88EB9BE09283818303C08FEF10
:100D10008093ED018091E9018C30A0F491E0980F6F
:100D20009093E9018093EA0190E0FC01EE0FFF1F30
:100D30008E0F9F1FFC01EB53FE4F88EB9BE09283CD
:100D4000818308958FEF8093EA010895789484B5A4
:100D5000826084BD84B5816084BD85B5826085BDB7
:100D600085B5816085BD80916E00816080936E0045
:100D70001092810080918100826080938100809137
:100D800081008160809381008091800081608093E8
:100D900080008091B10084608093B1008091B000A8
:100DA00081608093B00080917A00846080937A00A3
:100DB00080917A00826080937A0080917A008160CD
:100DC00080937A0080917A00806880937A001092F4
:100DD000C10061E086E00E94130261E085E00E94AC
:100DE000130261E084E00E94130261E083E00E944C
:100DF000130260E082E00E94130261E08AE00E9438
:100E0000130261E089E00E94130260E08BE00E941F
:100E1000130261E086E00E94E30160E085E00E9449
:100E2000E30167E070E08DEE91E00E94310368E03D
:100E300070E08AEE91E00E943103E0913801F09178
:100E4000390182E08083E0913401F0913501108214
:100E5000E0913601F09137018FEC808310924001D0
:100E6000E0913C01F0913D0186E08083E0913A0100
:100E7000F0913B01808180618083E0913A01F091A3
:100E80003B01808188608083E0913A01F0913B01D1
:100E9000808180688083E0913A01F0913B018081FC
:100EA0008F7D80838AE090E00E94830490E090939D
:100EB00027018093260184E190E00E94830490E062
:100EC00090932501809324018EE190E00E94830499
:100ED00090E0909323018093220188E290E00E94A9
:100EE000830490E0909321018093200182E390E0BD
:100EF0000E94830490E090931F0180931E018CE375
:100F000090E00E94830490E090931D0180931C0167
:100F10000EEF10E00E94BF018130910509F008C179
:100F200010932701009326019093250180932401BB
:100F300010932301009322019093210180932001BB
:100F400010931F0100931E0190931D0180931C01BB
:100F50000E94BF01019739F46FE870E08DEE91E0D7
:100F60000E94AE02F5CF65E570E08DEE91E00E9443
:100F7000AE02C0E0D0E0CA30D1050CF474C060E02D
:100F800084E00E94E30160E083E00E94E3010E94AC
:100F90008D039B014091260150912701641775072D
:100FA00024F470932701609326014091240150910D
:100FB00025014217530724F47093250160932401FF
:100FC0006AE070E080E090E00E94740261E084E0FA
:100FD0000E94E30161E083E00E94E3010E948D032F
:100FE0009B0140912201509123016417750724F45D
:100FF00070932301609322014091200150912101BF
:101000004217530724F470932101609320016AE092
:1010100070E080E090E00E94740260E084E00E9452
:10102000E30161E083E00E94E3010E948D039B01E4
:1010300040911E0150911F016417750724F47093AD
:101040001F0160931E0140911C0150911D01421728
:10105000530724F470931D0160931C016AE070E053
:1010600080E090E004C06EE170E080E090E00E94DB
:1010700074022196C23F83E0D80709F07CCF6091CB
:1010800026017091270165507109709327016093C3
:1010900026018091240190912501059690932501C8
:1010A00080932401809122019091230105979093D0
:1010B00023018093220180912001909121010596C6
:1010C000909321018093200180911E0190911F0136
:1010D000059790931F0180931E0180911C019091B0
:1010E0001D01059690931D0180931C018AE090E0FC
:1010F0000E9481046091240184E190E00E948104B7
:10110000609122018EE190E00E94810460912001B3
:1011100088E290E00E94810460911E0182E390E0E9
:101120000E94810460911C018CE390E00E94810484
:1011300060E089E00E94E30160E08AE00E94E30150
:101140006FE870E08DEE91E00E94AE0264EF71E016
:1011500080E090E00E94740265E570E08DEE91E021
:101160000E94AE020E94B7030E94B70361E0813083
:1011700031F48AE00E94E3016CE870E005C089E088
:101180000E94E30168E270E08AEE91E00E94AE0204
:1011900068EC70E080E090E00E94740260E370E030
:1011A0008DEE91E00E94AE0264EF71E080E090E08D
:1011B0000E9474020E948C01ADCEF999FECF92BDBF
:1011C00081BDF89A992780B50895262FF999FECF09
:1011D0001FBA92BD81BD20BD0FB6F894FA9AF99A54
:1011E0000FBE01960895052E97FB1EF400940E94F1
:1011F0000A0957FD07D00E94250907FC03D04EF4C9
:101200000C940A0950954095309521953F4F4F4FCA
:101210005F4F089590958095709561957F4F8F4FA2
:101220009F4F08950E944709A59F900DB49F900D70
:10123000A49F800D911D11240895B7FF0C941209ED
:101240000E941209821B930B0895A1E21A2EAA1B79
:10125000BB1BFD010DC0AA1FBB1FEE1FFF1FA21766
:10126000B307E407F50720F0A21BB30BE40BF50B63
:10127000661F771F881F991F1A9469F760957095EC
:10128000809590959B01AC01BD01CF010895A29F6F
:10129000B001B39FC001A39F700D811D1124911D4A
:1012A000B29F700D811D1124911D0895991B79E045
:1012B00004C0991F961708F0961B881F7A95C9F7E6
:1012C00080950895EE0FFF1F0590F491E02D09948D
:0E12D00081E090E0F8940C946D09F894FFCF43
:1012DE000000000023018C00BB006A01EC00CA0074
:0212EE00DE0020
:00000001FF
